:020000040800F2
:1000000000400120F18D0008398E0008398E00086B
:10001000398E0008398E0008398E00080000000073
:10002000000000000000000000000000398E000801
:10003000398E000800000000398E0008FB790008A6
:10004000398E0008398E0008398E0008398E000874
:10005000398E0008398E00080D7B0008137B0008DC
:10006000197B00081F7B0008257B0008398E0008DB
:10007000398E0008398E0008398E0008398E000844
:10008000398E0008398E0008398E0008398E000834
:10009000398E0008398E0008398E00082B7B000845
:1000A000398E00083D760008517600086576000814
:1000B000C5750008D9750008ED750008652B0008A6
:1000C000712B00087D2B0008892B0008398E000851
:1000D000398E0008A9850008C1850008DD85000863
:1000E000417B0008398E0008398E0008157600081B
:1000F000297600080000000001760008398E00080B
:10010000F985000811860008398E0008398E00082C
:10011000398E0008398E0008398E00080000000072
:10012000398E000800000000000000000000000000
:0C01300000000000000000005FF808F173
:10013C00034613F8012B002AFBD1181A013870471B
:10014C0053B94AB9002908BF00281CBF4FF0FF3132
:10015C004FF0FF3000F00CB8ADF1080C6DE904CE97
:10016C0009F04EF9DDF804E0DDE9022304B0704734
:10017C00704700BF10B5054C237833B9044B13B14D
:10018C000448AFF300800123237010BD98000020B9
:10019C0000000000C896000808B5034B1BB10349CA
:1001AC000348AFF3008008BD000000009C00002055
:1001BC00C896000810B5E94C0221204601F03DFC20
:1001CC0000224FF6E073C8212046C4E9042301F055
:1001DC00B3FBCC21204601F0AFFBCC21204601F033
:1001EC00ABFBCC21204601F0A7FBCC21204601F033
:1001FC00A3FBCC21204601F09FFBCC21204601F033
:10020C009BFBCC21204601F097FBCC21204601F032
:10021C0093FBCC21204601F08FFBCC21204601F032
:10022C008BFBCC21204601F087FBCC21204601F032
:10023C0083FBCC21204601F07FFBCC21204601F032
:10024C007BFBCC21204601F077FBCC21204601F032
:10025C0073FBCC21204601F06FFBCC21204601F032
:10026C006BFBCC21204601F067FBCC21204601F032
:10027C0063FBBA21204601F05FFB204608F066FCC8
:10028C00B921204601F058FB2021204601F054FBF7
:10029C002021204601F050FB2021204601F04CFB90
:1002AC001821204601F048FB2021204601F044FB98
:1002BC002021204601F040FB2021204601F03CFB90
:1002CC002021204601F038FB2021204601F034FB90
:1002DC002021204601F030FB2021204601F02CFB90
:1002EC002021204601F028FB2021204601F024FB90
:1002FC002021204601F020FB2021204601F01CFB90
:10030C002021204601F018FB2021204601F014FB8F
:10031C002021204601F010FB2021204601F00CFB8F
:10032C002021204601F008FBB921204601F004FBF6
:10033C00204608F00BFCB921204601F0FDFA2021E3
:10034C00204601F0F9FA1B21204601F0F5FA202194
:10035C00204601F0F1FA2021204601F0EDFA20218F
:10036C00204601F0E9FA1A21204601F0E5FA202195
:10037C00204601F0E1FA2021204601F0DDFA20218F
:10038C00204601F0D9FA2021204601F0D5FA20218F
:10039C00204601F0D1FA2021204601F0CDFA20218F
:1003AC00204601F0C9FA2021204601F0C5FA42216D
:1003BC00204601F0C1FA2021204601F0BDFA20218F
:1003CC00204601F0B9FA4121204601F0B5FA20216E
:1003DC00204601F0B1FA2021204601F0ADFAB921F6
:1003EC00204601F0A9FA204608F0B0FBB9212046BE
:1003FC0001F0A2FA2021204601F09EFA202120468D
:10040C0001F09AFA2021204601F096FA1921204693
:10041C0001F092FA2021204601F08EFA202120468C
:10042C0001F08AFA2021204601F086FA202120468C
:10043C0001F082FA1621204601F07EFA2021204696
:10044C0001F07AFA2021204601F076FA1621204696
:10045C0001F072FA2021204601F06EFA202120468C
:10046C0001F06AFA2021204601F066FA202120468C
:10047C0001F062FA2021204601F05EFA202120468C
:10048C0001F05AFA2021204601F056FA202120468C
:10049C0001F052FAB921204601F04EFA204608F03C
:1004AC0055FBC721204601F047FACC21204601F02C
:1004BC0043FACC21204601F03FFACC21204601F032
:1004CC003BFACC21204601F037FACC21204601F032
:1004DC0033FACC21204601F02FFACC21204601F032
:1004EC002BFACC21204601F027FACC21204601F032
:1004FC0023FACC21204601F01FFACC21204601F032
:10050C001BFACC21204601F017FACC21204601F031
:10051C0013FACC21204601F00FFACC21204601F031
:10052C000BFACC21204601F007FACC21204601F031
:10053C0003FACC21204601F0FFF9CC21204601F032
:10054C00FBF9CC21204601F0F7F92046BB2101F044
:10055C00F3F92046BDE8104008F0F8BAC8000020B6
:10056C0070B5364C0221204601F067FA4FF6E07365
:10057C00334D344E2A78636133789A4206D1002188
:10058C00132008F0D9FB2B78337070BD4FF47A71BF
:10059C000A22132008F054FB2B4B204623612B78A6
:1005AC00D90754BFDA21412101F0C6F9274B234862
:1005BC0023612B789A074CBF4221DA2101F0BCF958
:1005CC00234B1E4823612B785B074CBF1621DA2185
:1005DC0001F0B2F91F4B23612B7818074CBF162181
:1005EC00DA21164801F0A8F91B4B144823612B782B
:1005FC00D9064CBF1821DA2101F09EF94FF03013C7
:10060C0023612B780D489A064CBF1921DA2101F091
:10061C0093F9124B094823612B785B064CBF1B21C5
:10062C00DA2101F089F90E4B044823612B78DB09A0
:10063C0014BF1A21DA2101F07FF9A4E7C8000020C9
:10064C00B5000020B4000020D8002000B400200029
:10065C006C003000900030003000100018002000BA
:10066C004800200008B51B2240F29321132008F00B
:10067C00E7FA1E2008F0BAFC112008F0B7FCAE22F5
:10068C0040F2BA21132008F0DBFAC22008F0AEFCCD
:10069C00112008F0ABFC4F2240F2BA21132008F0D5
:1006AC00CFFA582008F0A2FC112008F09FFC4F2232
:1006BC0040F2BA21132008F0C3FA582008F096FC37
:1006CC007B2008F093FC4F2240F2BA21132008F053
:1006DC00B7FA582008F08AFC7B2008F087FCAE2281
:1006EC0040F2BA21132008F0ABFAC22008F07EFCCD
:1006FC00112008F07BFC4F2240F24B21132008F014
:10070C009FFA582008F072FC7B2008F06FFC4FF425
:10071C00E67240F24B21132008F092FA4FF400706D
:10072C0008F064FC112008F061FCAE2240F2BA2102
:10073C00132008F085FAC22008F058FC112008F0AC
:10074C0055FC4F2240F2BA21132008F079FA5820B8
:10075C0008F04CFC112008F049FC4F2240F2BA2161
:10076C00132008F06DFA582008F040FC7B2008F0AC
:10077C003DFC4F2240F20F31132008F061FA582053
:10078C0008F034FC7B2008F031FCAE2240F23E3104
:10079C00132008F055FAC22008F028FC112008F0AC
:1007AC0025FC4F2240F20F31132008F049FA582053
:1007BC0008F01CFC112008F019FC4F2240F2BA2161
:1007CC00132008F03DFA582008F010FC112008F016
:1007DC000DFC4F2240F24B21132008F031FA582027
:1007EC0008F004FC112008F001FC4F2240F2BA2161
:1007FC00132008F025FA582008F0F8FB112008F017
:10080C00F5FB4F2240F20F31132008F019FA582053
:10081C0008F0ECFBE52008F0E9FBAE2240F2BA212F
:10082C00132008F00DFAC22008F0E0FB112008F0AC
:10083C00DDFB4F2240F2BA21132008F001FA5820B8
:10084C0008F0D4FB112008F0D1FB4F2240F2BA2162
:10085C00132008F0F5F9582008F0C8FB7B2008F0AD
:10086C00C5FBAE2240F20F31132008F0E9F9C2208B
:10087C0008F0BCFB112008F0B9FBAE2240F23E316F
:10088C00132008F0DDF9C22008F0B0FB112008F0AD
:10089C00ADFBAE224FF45C71132008F0D1F9C220ED
:1008AC0008F0A4FB112008F0A1FB4F2240F21641E6
:1008BC00132008F0C5F9582008F098FB7B2008F0AD
:1008CC0095FBAE224FF45C71132008F0B9F9C220ED
:1008DC0008F08CFB7B2008F089FBAE2240F296419D
:1008EC00132008F0ADF9C22008F080FB112008F0AD
:1008FC007DFB4F2240F29641132008F0A1F95820BD
:10090C0008F074FB7B2008F071FB4F2240F29641FB
:10091C00132008F095F9582008F068FB112008F016
:10092C0065FB4F224FF45C71132008F089F95820B5
:10093C0008F05CFB112008F059FB4F2240F2964165
:10094C00132008F07DF9582008F050FB112008F016
:10095C004DFB40F24A3240F21641132008F070F978
:10096C0040F2A73008F042FBBDE80840112008F027
:10097C003DBB00002DE9F04101211A2008F0C2FA1C
:10098C00082008F0F7FA254C237800283FD043F0D4
:10099C000103234F2370234A3B682349B3FBF2F333
:1009AC0048685B004A68121A9342FBDC00211A204B
:1009BC0008F0A8FA01251C4EDFF8688001211420EC
:1009CC0008F0A0FA3B687168B3FBF8F35B0072683F
:1009DC00521A9342FBDC082008F0CCFA0123AB40FE
:1009EC002278DBB2B0B1134300211420237008F03D
:1009FC0089FA3B687168B3FBF8F35B007268521AB2
:100A0C009342FBDC0135082DD8D1BDE8F08103F011
:100A1C00FE03BEE722EA0303E6E700BFB5000020B1
:100A2C003C00002040420F00001000E008B5FFF72A
:100A3C00A1FFBDE80840FFF793BD0000002330B5CF
:100A4C00044685B0CDE902238DF805308DF80410ED
:100A5C0000F26C4504AB13E90E00284603F052FD7E
:100A6C0094F87E34C4F8685483B901222946204690
:100A7C0003F065F9034660B104F24445284602F0E0
:100A8C00BBFB2146284602F0B8F950B9002005B04E
:100A9C0030BD02462946204603F051F90028EBD11F
:100AAC00F4E7014B1C60F2E73007002073B501211D
:100ABC00132008F0BDF90021132008F03DF906229F
:100ACC004FF416514A4807F0B1FF01211A2008F0E3
:100ADC00AFF90121142008F0ABF90021082008F02F
:100AEC00A7F9444C0021142008F00CFA00211A201C
:100AFC0008F008FA0021204602F04CF83E493C4828
:100B0C0008F020F80A213D4A3D48FFF797FF0546BB
:100B1C00B0B93C49364808F021F80321204625613C
:100B2C0000F08BFF4FF0F82337492046636108F043
:100B3C001FF82A464FF47A71132008F081F8FEE76B
:100B4C0032492B4808F00AF82046012102F054F8EB
:100B5C002046002100F03DFC4FF47A72002501265E
:100B6C001146132008F06CF82949214807F0EAFFD8
:100B7C0028232246CDE900562649274804F088F957
:100B8C001B4A0146244804F093F94FF4FA6008F02C
:100B9C002DFA224B294620461D7000F01AFC2049E4
:100BAC00134807F0DBFF6FF01F132046022163612F
:100BBC00256100F042FF20461A4907F0D9FF314663
:100BCC00204600F03AFF20461749E67607F0D0FFA2
:100BDC001649204607F0CCFFFFF744FD2946204676
:100BEC0000F0F7FB02B0BDE87040FFF7E3BA00BFBE
:100BFC00B4080020C8000020E096000840787D0171
:100C0C0044010020FB9600080D9700081B97000874
:100C1C001F970008339700080C010020B600002035
:100C2C003D9700086A9700087F970008E597000831
:100C3C001349144A08B5C1F874240122C1F8782468
:100C4C004FF428120023C1F87C240F4A0F484B6044
:100C5C00C1F84434C1F86834C1F88034C1F86C244C
:100C6C0081F8883403F026FE4FF0FF33272216213B
:100C7C00074802F03BF8BDE80840064803F0D7BD32
:100C8C004401002000093D00EC9F00080C010020ED
:100C9C00C8000020B800002008B5044803F003FE8B
:100CAC00BDE80840024803F013BE00BFB8000020A6
:100CBC000C0100202DE9F0411C46454B1646C3663D
:100CCC0001230D46A0F870305C2200210746DDF8A8
:100CDC00188008F0ADFAF3B2322B28D83D4A06F44E
:100CEC00E06652F823301E43EBB2322BFE6532D84D
:100CFC00384A05F4E06552F823301D43E3B2322B39
:100D0C003D663CD8334A04F4E06452F823301C436B
:100D1C005FFA88F2322A7C6645D82E4908F4E063E3
:100D2C0051F8222013433846BB66BDE8F08106F02B
:100D3C00C002C02A0CD1D42B0AD8274B06F03F0294
:100D4C0053F82220234B06F4E06653F82230CAE70E
:100D5C004FF0FF36C8E705F0C002C02A0CD1D42BE7
:100D6C000AD81D4B05F03F0253F82220194B05F40D
:100D7C00E06553F82230C0E74FF0FF35BEE704F0D2
:100D8C00C002C02A0CD1D42B0AD8134B04F03F025A
:100D9C0053F822200F4B04F4E06453F82230B6E7EA
:100DAC004FF0FF34B4E708F0C003C02B0CD1D42AA9
:100DBC000AD8094B08F03F0253F82210054A08F4F0
:100DCC00E06352F82120ADE74FF0FF33ABE700BFF3
:100DDC0000093D0060A700080CA7000800220123B1
:100DEC00054910B410BC80F85120C16680F87030F1
:100DFC0080F8712000F080B800093D0017B46B46F4
:100E0C0083E80600C16E009A0446914205D1B0F801
:100E1C007010BDF8042091420ED000989B88E066BB
:100E2C002046A4F8703094F8703094F87120E16E7C
:100E3C0003B010BC00F060B803B010BC7047704732
:100E4C0000F074B907B5002A8DF807100DF10701F1
:100E5C004FF001030CBF0A46002200F0A7F99DF8E1
:100E6C00070003B05DF804FB002B93B20CBF0A46DD
:100E7C00002200F09BB99BB200F098B9332307B560
:100E8C00C6220093C721C5230248FFF713FF03B006
:100E9C005DF804FBD005002091FAA1F3B3FA83F3BB
:100EAC0091FAA1F130B5B1FA81F10325C4685B0068
:100EBC0005FA03F3490024EA03038A401A43C2608B
:100ECC0030BD00000346084A106863B1074A9342DC
:100EDC0001D105F0B9BB064A934201D105F0A4BB80
:100EEC00044A9342FAD070473C0000200030014085
:100EFC0000380040003C00402DE9F04F0E461546EE
:100F0C001F46044685B0002800F0BE807D49006E67
:100F1C0006F060FF7C498146E06D06F05BFF7B4983
:100F2C008346606E06F056FF79498046A06E06F047
:100F3C0051FF8246B9F1000F00F0A680BBF1000F03
:100F4C0000F0A280B8F1000F00F09E805946484690
:100F5C0006F067FF51468146404606F062FF0146A7
:100F6C008046484606F05DFFA065B9F1000F00F021
:100F7C008B80B8F1000F00F08780002800F084808F
:100F8C00A26E4FF48273511C0CBF4FF400724FF4DD
:100F9C0080222060A2616360FFF794FFB6EB500FD4
:100FAC0075D2B6EB900F74D2B6EBD00F73D2B6EB02
:100FBC00101F72D2B6EB501F71D2B6EB901F70D2CD
:100FCC00B6EBD01F2CBF30233823E361002D6AD041
:100FDC00022D6AD0013D18BF012501236D00B7FA1F
:100FEC0087F7C4E90453072300267F099F40E36277
:100FFC004449206EC4E90876A660A662E66006F055
:10100C00D1FE4149E06D06F0CDFE606E3F4906F021
:10101C00C9FE2369B34214BF01220222636E190672
:10102C005EBF3C49C3F3031051F820003A4903F06A
:10103C000F0348BF3046022A18BF012251F8231073
:10104C00FFF72AFF3249A06E06F0ACFE2368334A44
:10105C0093422CD1324B1A6A42F480521A621A6AA9
:10106C0002F480520192019A5A6942F480525A61F8
:10107C005A6922F480525A61204605F014FB22680A
:10108C00136843F04003136005B0BDE8F08F0023F4
:10109C009BE7082399E7102397E7182395E720236C
:1010AC0093E7282391E72B4699E7002397E71D4AFE
:1010BC00934212D11A4B5A6A42F480425A625A6ACB
:1010CC0002F480420292029A9A6942F480429A6136
:1010DC009A6922F480429A61CEE7134A9342CBD1AB
:1010EC000F4B5A6A42F400425A625A6A02F40042A6
:1010FC000392039A9A6942F400429A619A6922F423
:10110C000042E8E7ACA3000858A3000810A30008AD
:10111C00C8A200081400002064A20008003001409E
:10112C000038024000380040003C004010B5044636
:10113C0090B105F015FB2368184A93420DD1184B5A
:10114C005A6942F480525A615A6922F480525A61A7
:10115C001A6A22F480521A6210BD124A93420DD1BF
:10116C000F4B9A6942F480429A619A6922F4804248
:10117C009A615A6A22F480425A62EDE70A4A934213
:10118C00EAD1074B9A6942F400429A619A6922F4B7
:10119C0000429A615A6A22F40042EDE700300140A5
:1011AC000038024000380040003C00402DE9F0417E
:1011BC000D4616461C4633B3076803F0E1FE804625
:1011CC00BB689907FCD5D5B115F8013B3B73BB68DF
:1011DC00DA07FCD53B7B0EB106F8013B03F0D0FEE1
:1011EC00A0EB0800B0F57A7F04F1FF3409D2002C93
:1011FC00E6D12046BB681B06FCD4BDE8F081FF237A
:10120C00E4E70120F6E70220F7E70020704770477B
:10121C002DE9F04F1D4685B0BDF93860A5EB0109ED
:10122C00A6EB0208B8F1000FB8BFC8F10008B9F17D
:10123C00000FBDF83C30B8BFC9F10009C845824663
:10124C001746009304DC33460F462E4611461D46C6
:10125C00B74205DC2B460D46194633463E461F4623
:10126C00BC1BA3B201934B1B83EAE372A2EBE372A8
:10127C0023B2C4F3C0341C448D42B4BF01234FF0DD
:10128C00FF33029264100393BE4202DD05B0BDE849
:10129C00F08FDAF80030C845C7BF324629462A46D7
:1012AC003146D3F818B05046009BD847029BE41A3D
:1012BC00A3B224B2002C05DA039A1544019A2DB27C
:1012CC0013441CB2013636B2DEE7704710B4046822
:1012DC002469A44610BC604730B4BDF808500468BB
:1012EC000295A46BA44630BC604730B4BDF80850DE
:1012FC0004680295E46BA44630BC604770B4BDF939
:10130C000C50BDF810600468CDE90356246CA4465B
:10131C0070BC60472DE9F3411C46164605460F4646
:10132C000368013CBDF820805B693444984724B2C3
:10133C002B68CDF80480009428469C6A32463B46C4
:10134C003946A04728462B68DB6A02B0BDE8F0415D
:10135C0018472DE9F341044617461D460E4603680F
:10136C00BDF820805B6998472268CDE900786B1E38
:10137C0033442046956A31463A461BB2A84720466C
:10138C002368DB6A02B0BDE8F04118472DE9F3474A
:10139C001E4603680C465B6905461746BDF9288056
:1013AC00BDF82C9098472644B4422B6805DB2846A0
:1013BC00DB6A02B0BDE8F0471847CDF80090214633
:1013CC00D3F820A03A46434628460134D04724B2ED
:1013DC00EAE713B50191B0F90E1002680091146C94
:1013EC000022B0F90C301146A04702B010BD2DE917
:1013FC00F34704460F4616461D460368BDF82C807D
:10140C005B69BDF9289098472368CDF80080324677
:10141C0039462046D3F824A02B46D047236809F13F
:10142C00FF32CDF80080324439462046D3F824A050
:10143C0012B22B46D0472368CDF80080324639468D
:10144C002046D3F820A04B46D047013D2368E9192C
:10145C00CDF8008020461D6A32464B4609B2A8479B
:10146C0020462368DB6A02B0BDE8F0471847704796
:10147C0070B5456A65B351EA020429D4B0F90C4041
:10148C008C4225DDB0F90E40944221DD867EB0F908
:10149C000840022E1DD0032E23D0012E03D1A01AFA
:1014AC0001380A4601B2E01D48BF04F10E00C0101D
:1014BC00424308460029B8BFC81D40F3CF00024480
:1014CC00A85C01F0070193B180230B411843A85489
:1014DC0070BD4089611A821A0139013A09B212B2FF
:1014EC00E1E74089401A0138114602B2DBE76FF0A0
:1014FC0080030B411840EAE770B5446ADCB151EA4D
:10150C00020518D4B0F90C508D4214DDB0F90E5010
:10151C00954210DD867EB0F90850022E0CD0032EB9
:10152C0012D0012E03D1A81A01380A4601B205FBCC
:10153C00021124F8113070BD4089691A821A0139E0
:10154C00013A09B212B2F2E74089401A0138114649
:10155C0002B2ECE70346406A10B480B1B3F908401C
:10156C00B3F90A30E21D48BF04F10E02D210002973
:10157C0014BFFF2100215A4310BC07F059BE10BC08
:10158C00704730B40446406A0B4698B1CDB2B4F9FA
:10159C000820B4F90A10B5EB132F01FB02F24FEA45
:1015AC0013214FEA420202D130BC07F041BE024483
:1015BC00824201D130BC704720F8023BF8E72DE99C
:1015CC00F7439942154607460C469846BDF92860E4
:1015DC00BDF82C90026810D1B542DEBF33462E46C2
:1015EC001D46CDF828906B1C956B3246AC469B1B68
:1015FC001BB203B0BDE8F0436047B5420ED199422F
:10160C00DCBF1C468846CDF82890D66B0134A4EB81
:10161C0008042A464146B44623B2EAE75369984780
:10162C003B68CDE9006938469E6A2A464346214606
:10163C00B04738463B68DB6A03B0BDE8F043184757
:10164C0001F003038376B0F90830C90758BF194677
:10165C00B0F90A205CBF13460A46C38182817047E9
:10166C0030B50181002481814FF0FF31054D42815D
:10167C00C281054A4460C0E9051205600461047723
:10168C00046230BD88980008010100012DE9F04F7B
:10169C0093B01E460392BDF87030026A8246BDF8C4
:1016AC0074709DF878509DF87C4005910493002A45
:1016BC0040F0B980B0F90C308B4240F33881B0F96E
:1016CC000E30039A934240F33281062303FB051339
:1016DC00002B40F32C81039B03EBC403002B40F342
:1016EC002681037F1BB9AF2E84BF0136F6B2DAF820
:1016FC00003050465B69984705234FF000080A9369
:10170C008C4B06EB860633440E93BDF80C300693D7
:10171C000E9BBDF8146013F808304FF000090793C6
:10172C001FFA88F3089305FB03631BB20993082384
:10173C000B932BB20C9323B20D93079ADAF800306B
:10174C00D2074ED5012D06991FFA89F23BD1012CF7
:10175C0039D10A440899D3F818B0049B3144504647
:10176C0012B209B2D847079B09F101095B0807932C
:10177C000B9B4FFA89F9013B13F0FF030B93DCD160
:10178C000A9B08F10108013B13F0FF034FFA88F89C
:10179C000A93BDD1049BBB420DD0012DDAF8003069
:1017AC0034D1012C32D1711D00971C6A504608238C
:1017BC00039A09B2A0475046DAF80030DB6A13B03E
:1017CC00BDE8F04F184702FB0412049901910D99E2
:1017DC0050460091D3F81CB009990C9B12B2D84713
:1017EC00C1E7049ABA42BED0012D06991FFA89F2BC
:1017FC0008D1012C06D10A440899D3F818B0314409
:10180C003B46ACE702FB04120197E0E705EB8502CF
:10181C00E400B11801970094DC6950462B46039AFA
:10182C0009B2A047C7E70027137A5168F61A126865
:10183C00F6B20C9231F8362001EBC60306929A7878
:10184C0093F905600892DA7893F90630B946099352
:10185C0045EA0403012B98BF4FF0000BB846036810
:10186C000D925B698ABF0796CDF81CB0DDF824B0E9
:10187C009847BDF814300A93334411930D9B984547
:10188C0099D2BDF80C3000260593059A08EB0B0392
:10189C0003FB04232AB21BB20F9222B20B931092B9
:1018AC003B4629E05A1CD2B25B070E9207D1069B2D
:1018BC0006990C9A01339BB212F80190069319F019
:1018CC00800F12D0012DDAF800301FD1012C1DD160
:1018DC000999059A9B690A441199424471189C46CE
:1018EC005046049B12B209B2E0474FEA490901364F
:1018FC000E9B5FFA89F9F6B2089A9642D2D3174436
:10190C0008F10108FFB25FFA88F8B7E7079A50466A
:10191C0091190A9A01FB0521049A09B20192109AB5
:10192C000092DB690B9A9C460F9BE047DDE713B0F6
:10193C00BDE8F08F88990008F0B5026A04460B46A2
:10194C0085B0002A34D10A2908D1438A0282427E0A
:10195C0003EBC2036382012005B0F0BD0D29FAD060
:10196C00E17E007E657E71B10626B4F9101006FB8F
:10197C000011B4F90C60B142C1BFB4F9121022824B
:10198C0001EBC5026282CDE90205E28A2046019292
:10199C00A28A0092B4F91220B4F91010FFF776FE67
:1019AC00237E228A03EB430302EB43032382D2E719
:1019BC000A2907D100230382417E127B438A01FB53
:1019CC000233C7E70D29C6D0117A8B42C3D3907A64
:1019DC009842C0D35568591AC9B205EBC105A9780C
:1019EC0029B3E87818B3E07E267E677E90B195F92E
:1019FC0005000844B4F9101006FB0011B4F90C00F2
:101A0C00814207DD00202082B4F91210127B02FB08
:101A1C0007126282CDE90267E28A20460192A28A0D
:101A2C000092B4F91220B4F91010FFF72FFE2979A7
:101A3C00227E238A01FB0233B8E7012938BF01213A
:101A4C00017641767047000070B505460C46164687
:101A5C0009B212B2FFF704FE0A4A85F828302A6050
:101A6C006BB10734E4107443204607F0DDFA68626A
:101A7C0018B12246002107F0DBFB284670BD6B62D3
:101A8C00FBE700BFE098000810B50446406A20B19F
:101A9C0094F828300BB107F0CFFA204610BD70B582
:101AAC001446B0F90860BDF81020F51D48BF06F1CA
:101ABC000E050E46ED106C430029B8BFCE1D406AD2
:101ACC0004EBE604204401F007017AB1802242FACB
:101ADC0001F100221446C9B226B2B34200DC70BD3B
:101AEC00865C01340E4386542A44F5E76FF080047B
:101AFC0044FA01F11446C9B226B2B342EFDD865C5A
:101B0C0001340E4086542A44F6E7F8B5B0F9086063
:101B1C00BDF81850F41D48BF06F10E04E4106243E2
:101B2C000C460029B8BFCC1D466A02EBE40201F05A
:101B3C000700490706EB02041CD041B2002B36D03B
:101B4C000F4600204FF0800C4CFA07FE013140EAA2
:101B5C000E005FFA81FEBEF1080FC0B203F1FF3335
:101B6C0049B202D00137002BEED1B15C0DB3014369
:101B7C00B1540134D3B1291E18BF0121DE084942EA
:101B8C0003F0070732462046C9B207F051FB6FB18C
:101B9C0000208022014642FA00F3013019438742AB
:101BAC00C9B2F8D1A35D3DB11943A155F8BD184692
:101BBC00DBE721EA0001DBE723EA0103A355F5E7A4
:101BCC0070B4002B1446BDF80C500ADA9AB2631CA0
:101BDC009BB2D41824B2002CB3BF0024524213B2CF
:101BEC001BB2002939DBB0F90C208A4235DDB0F983
:101BFC000E20944231DAE618002E2EDD002CBCBFEC
:101C0C00002433B2E6189642C4BF121B13B2827E74
:101C1C00032A22D8DFE802F00207101A22460395A5
:101C2C0070BCFFF73CBF02890395141BE41A0A46EB
:101C3C0021B270BCFFF769BF02890395013A511AB2
:101C4C00428909B2121BD21A12B2E9E742890395F2
:101C5C00013A521A12B22146EBE770BC704770B4CD
:101C6C00002B0C46BDF80C5011460ADA9AB2631CD4
:101C7C009BB2D41824B2002CB3BF0024524213B22E
:101C8C001BB2002939DBB0F90E208A4235DDB0F9E0
:101C9C000C20944231DAE618002E2EDD002CBCBF4D
:101CAC00002433B2E6189642A4BF121B13B2827EF4
:101CBC00032A22D8DFE802F00208111B0A4621464B
:101CCC00039570BCFFF721BF02890395013A511AA5
:101CDC00224609B270BCFFF7E2BE42890395013A75
:101CEC00521A018912B2091BC91A09B2E9E74289D1
:101CFC000395121BD21A12B2ECE770BC704710B5E8
:101D0C000446406A20B194F828300BB107F094F9DE
:101D1C00204610BD70B505460C46164609B212B2E7
:101D2C00FFF79EFC094A85F828302A6063B174439A
:101D3C006400204607F078F9686218B12246002149
:101D4C0007F076FA284670BD6B62FBE738990008FD
:101D5C0010B50446406A20B194F828300BB107F056
:101D6C006BF9204610BD30B5B0F90840BDF80C50E9
:101D7C0002FB0411426A02EB410200210CB2A342A5
:101D8C0000DC30BD1580B0F90840013102EB440293
:101D9C00F4E730B5B0F90850BDF80C4002FB051162
:101DAC000B448B4200D830BD426A22F811400131FD
:101DBC00F7E770B4002B1446BDF80C500ADA9AB24F
:101DCC00631C9BB2D41824B2002CB3BF0024524223
:101DDC0013B21BB2002939DBB0F90C208A4235DD75
:101DEC00B0F90E20944231DAE618002E2EDD002CCC
:101DFC00BCBF002433B2E6189642C4BF121B13B208
:101E0C00827E032A22D8DFE802F00207101A22464B
:101E1C00039570BCFFF7A7BF02890395141BE41A46
:101E2C000A4621B270BCFFF7B4BF02890395013A90
:101E3C00511A428909B2121BD21A12B2E9E742892D
:101E4C000395013A521A12B22146EBE770BC704767
:101E5C0070B4002B0C46BDF80C5011460ADA9AB23D
:101E6C00631C9BB2D41824B2002CB3BF0024524282
:101E7C0013B21BB2002939DBB0F90E208A4235DDD2
:101E8C00B0F90C20944231DAE618002E2EDD002C2D
:101E9C00BCBF002433B2E6189642A4BF121B13B287
:101EAC00827E032A22D8DFE802F00208111B0A46C0
:101EBC002146039570BCFFF76CBF02890395013A6C
:101ECC00511A224609B270BCFFF74DBF42890395E7
:101EDC00013A521A018912B2091BC91A09B2E9E76F
:101EEC0042890395121BD21A12B2ECE770BC7047F0
:101EFC00002107F007B8012107F004B8002107F012
:101F0C0001B8012106F0FEBF002106F0FBBF012144
:101F1C0006F0F8BF002106F0F5BF012106F0F2BF74
:101F2C0038B5044612B209B21D46FFF799FB0022E0
:101F3C000A4B84F8342023609DF91830A28784F86A
:101F4C0035309DF91030204684F836309DF9143028
:101F5C00A26384F837302264656238BD909E000815
:101F6C0030B5044685B09DF9245002959DF920505A
:101F7C00CDE90035024BFFF7D3FF204605B030BD4D
:101F8C00D0050020F8B504463F4B90F936000029E7
:101F9C0014BF0F461F460028164607DB012106F02A
:101FAC0047FF012194F9360006F0ACFF012194F9AA
:101FBC00370006F03DFF012194F9370006F0A2FF2F
:101FCC0094F8345055BB0123606AA76284F82C3016
:101FDC0084F82D602663FEF701FF94F93500002884
:101FEC0051DB012106F024FF012194F9350006F0A4
:101FFC0089FF642006F0FAFF002194F9350006F001
:10200C0081FF642006F0F2FF94F93500012106F0FF
:10201C0079FFBDE8F840C82006F0E8BF012D1BD1C0
:10202C00294694F9240006F003FF002194F92400BA
:10203C0006F068FF294694F9260006F0F9FE94F99B
:10204C002600002106F05EFF94F925000028C4DB71
:10205C00002106F0EDFEC0E7012194F9250006F001
:10206C00E7FE94F92500012106F04CFF94F92600B7
:10207C000028B2DB012106F0DBFE012194F92600D9
:10208C0006F040FFA9E7F8BD0024F400704790F873
:10209C00343023B9D0E90A12406AFEF7AFBE70475C
:1020AC0010B50446FFF7F3FF94F93600002803DB64
:1020BC00BDE81040FFF72EBF10BD90F8343013B9B7
:1020CC00406AFEF7BCBE704710B5044690F9360066
:1020DC00002801DBFFF721FF2046FFF7EEFF10BDC4
:1020EC0010B50446002190F9250006F00BFF94F979
:1020FC0025000121BDE8104006F004BF2DE9F04198
:10210C00054688468AB190F834300F0ACEB273B9BE
:10211C00541E00223946686AFEF794FE00223146AE
:10212C00686AFEF78FFE013CF3D2BDE8F081012B0B
:10213C001CD1541E474610263B0495F9240012D599
:10214C00FFF7DFFE95F92600013EFFF7D4FE7F0076
:10215C0095F92600B6B2FFF7CBFEBFB2002EEBD13D
:10216C00013CE2D3E6E7FFF7C9FEEBE7B742DCD070
:10217C00541E2846FFF7B4FF013CFAD2D5E72DE9EF
:10218C00F3411D460446BDF82030BDF82460009391
:10219C00036892B2D3F8548089B2ABB2BDF9207007
:1021AC00C0473146204607FB05F202B0BDE8F041BE
:1021BC00FFF7A4BF2DE9F341BDF92040002B45D01A
:1021CC00002C43D0002B05DA9BB2013119445B4241
:1021DC0009B21BB2B0F90C608E4237DD002C05DA67
:1021EC00A4B201322244644212B224B2B0F90E50AD
:1021FC0095422BDD01EB03081FFA88F808F1FF3C30
:10220C000FFA8CFCBCF1000F20DB02EB040E1FFA62
:10221C008EFE0EF1FF373FB2002F17DB0029BCBF3B
:10222C0000210FFA88F3002ABCBF00220FFA8EF4AB
:10223C006645DCBF761A33B2BD42DCBFAD1A2CB298
:10224C00BDF82450CDE90045FFF799FF02B0BDE879
:10225C00F0812DE9F74380460D4616461C46BDF924
:10226C002870BDF82C90002B52D0002F50D0002B92
:10227C0005DA9CB20135254464422DB224B2B8F97A
:10228C000C20AA4244DD002F05DABFB201363E44D1
:10229C007F4236B23FB2B8F90E30B34238DD05EBAF
:1022AC00040E1FFA8EFE0EF1FF3000B200282FDB59
:1022BC0006EB070C1FFA8CFC0CF1FF3109B200295C
:1022CC0026DB002DBCBF00250FFA8EF4002EBCBF00
:1022DC0000260FFA8CF78242DCBF521B14B28B42E1
:1022EC00DCBF9B1B1FB2D8F8003040465B69984797
:1022FC002346404632462946CDE90079FFF73FFF99
:10230C004046D8F80030DB6A03B0BDE8F04318470C
:10231C0003B0BDE8F0832DE9F341171E06460C46C9
:10232C001D46BDF8208033DBB0F90E30BB422FDDEB
:10233C00002D2DD005DAADB201342C446D4224B2FF
:10234C002DB2B6F90C30A34222DD611989B24A1EB6
:10235C0012B2002A1CDB002CBCBF00240DB293422D
:10236C00DCBF1B1B1DB2336830465B6998470123E9
:10237C00304600933A462B462146CDF80480FFF7B1
:10238C00FEFE30463368DB6A02B0BDE8F041184708
:10239C0002B0BDE8F0812DE9F3410F1E064614464C
:1023AC001D46BDF8208031DBB0F90C30BB422DDD71
:1023BC00002D2BD005DAADB201342C446D4224B281
:1023CC002DB2B6F90E30A34220DD611989B24A1E36
:1023DC0012B2002A1ADB002CBCBF00240DB29342AF
:1023EC00DCBF1B1B1DB2336830465B699847304617
:1023FC00012322463946CDE90058FFF7C0FE30468E
:10240C003368DB6A02B0BDE8F041184702B0BDE8A2
:10241C00F081002A73B525DBB0F90E40944221DD22
:10242C00002B1FD005DA9BB2013119445B4209B273
:10243C001BB2B0F90C408C4214DDCE18B6B2751E2E
:10244C002DB2002D0EDB0029BCBF002133B2AC42F3
:10245C00DCBF641A23B2BDF8184001940124009427
:10246C00FFF78DFE02B070BD73B5002925DBB0F906
:10247C000C408C4221DD002B1FD005DA9BB20132BF
:10248C001A445B4212B21BB2B0F90E40944214DDF6
:10249C00D618B6B2751E2DB2002D0EDB002ABCBFAD
:1024AC00002233B2AC42DCBFA41A23B2BDF81840F0
:1024BC00CDE900340123FFF762FE02B070BD70B5A8
:1024CC0090F8342004460D4622B9BDE87040406AAD
:1024DC00FEF7B8BC012A18D108262B0694F9240063
:1024EC0010D5FFF70EFD94F92600FFF704FD013E11
:1024FC0094F92600FFF7FCFC6D0016F0FF06EDB218
:10250C00EBD170BDFFF7FAFCEDE7FFF7E9FDF8E75B
:10251C0038B504460D4690F93700FFF7F5FC204618
:10252C002946FFF7CCFF94F93700BDE83840FFF798
:10253C00EEBC70B50D46036804465B69984755B10F
:10254C0094F83C102046FFF7E3FF23682046BDE8D3
:10255C007040DB6A184794F83D10F3E770B590F8BB
:10256C00346005460C465EB93246090A406AFEF7ED
:10257C0069FC3246686AE1B2BDE87040FEF762BCA5
:10258C00012E18D11026230495F9240010D5FFF73D
:10259C00B8FC95F92600FFF7AEFC013E95F9260034
:1025AC00FFF7A6FC640016F0FF06A4B2EBD170BDD9
:1025BC00FFF7A4FCEDE7FFF793FDF8E773B50029EF
:1025CC0004461D4617DBB0F90C308B4213DD002A94
:1025DC0011DBB0F90E3093420DDD01230668009338
:1025EC00766D92B289B2B0472946204602B0BDE85A
:1025FC007040FFF7B3BF02B070BD70B506460D4614
:10260C009DF8103042B1541E3BB9304635F8021BD0
:10261C00FFF7A4FF013CF8D270BD35F8021B304621
:10262C0049BA89B2FFF79AFF013CF6D2F4E72DE9DB
:10263C00F3410D1E044616461F4620DBB0F90C3044
:10264C00AB421CDD002A1ADBB0F90E30934216DDCA
:10265C0003685B6998470123226800932046D2F8EF
:10266C005480A9B2B2B2C04720463946FFF776FF74
:10267C0020462368DB6A02B0BDE8F041184702B07F
:10268C00BDE8F081F8B504460E4615461F46FFF727
:10269C00FEFC94F93600002801DBFFF73BFC94F9B3
:1026AC003700FFF731FC31462046FFF708FF94F95D
:1026BC003700FFF72CFC0026B74209DC94F93600F2
:1026CC00002801DBFFF729FC2046FFF7F6FCF8BDDC
:1026DC0094F83430022B09D194F8273033B12046CA
:1026EC0035F8021BFFF73AFF0136E5E7204615F8EF
:1026FC00011BFFF7E4FEF7E7F8B504460E46154656
:10270C001F46FFF7C4FC94F93600002801DBFFF7E5
:10271C0001FC94F93700FFF7F7FB31462046FFF731
:10272C00CEFE94F93700FFF7F2FB0026B74209DC26
:10273C0094F93600002801DBFFF7EFFB2046FFF78A
:10274C00BCFCF8BD94F83430022B09D194F8273036
:10275C0033B1204635F8021BFFF700FF0136E5E7E1
:10276C00204615F8011BFFF7AAFEF7E7028BC08A7B
:10277C00101A70470346C28A018B914281BF0169CE
:10278C00885C0132DA8298BF4FF0FF307047028BC1
:10279C00C38A9A4286BF0269D05C4FF0FF30704703
:1027AC00836810B5044613B10322014698472046AE
:1027BC0010BD000070B54FF47A730E460021C0E9CD
:1027CC000113034615462B4A044643F8C42BC0F8A4
:1027DC00C4109C22C3E90111C0E93411C0E93611BF
:1027EC00C0F8E010283006F023FDF3B2322B19D8D4
:1027FC00214A06F4E06652F823301E43EBB2322B2A
:10280C00C4F8846022D81C4A05F4E06552F82330E1
:10281C001D4300232046C4F88850E36123842361C0
:10282C00A38270BD06F0C002C02A0CD1D42B0AD8EA
:10283C00124B06F03F0253F822200F4B06F4E066D1
:10284C0053F82230D9E74FF0FF36D7E705F0C00236
:10285C00C02A0CD1D42B0AD8084B05F03F0253F8F0
:10286C002220054B05F4E06553F82230D0E74FF0F9
:10287C00FF35CEE7F09E000860A700080CA7000803
:10288C0038B50446283000F0A9F8E06918B106F014
:10289C00D3FB0023E36100252069258410B106F0E9
:1028AC00CBFB2561A58238BD38B505460446074BE0
:1028BC0045F8D43BFFF7E4FF2846FFF771FF04F11E
:1028CC00C400FFF76DFF204638BD00BFF09E000826
:1028DC00B1F5806F70B505460C4610D8038C994243
:1028EC000AD920290E4638BF2026C069314606F089
:1028FC0059FC18B1E8612E84204670BDFEE7002417
:10290C00FAE713B590F8243004468DF807107BB124
:10291C00418C0131FFF7DCFF40B10120638C9DF845
:10292C000710E269D154638C0133638402B010BD8B
:10293C0001220DF10701283000F08EF8B0FA80F07A
:10294C004009F3E770B590F8243004460E4615465E
:10295C0093B1418C1144FFF7BBFF10B900252846F9
:10296C0070BD638CE0692A461844314606F09EFC23
:10297C00638C2B446384F2E792B2283000F06CF83D
:10298C000028EBD1EBE70346006918B100219A8AC5
:10299C0006F04EBC70470346C06918B100211A8C72
:1029AC0006F046BC704738B500250446C582058341
:1029BC00FFF7E9FF20466584FFF7EDFF38BD000007
:1029CC00162217210148FFF7F5BE00BF4406002070
:1029DC000148FFF769BF00BF4406002010B504464C
:1029EC0090F9640002F022FB94F9650002F01EFBE2
:1029FC00201D02F0DAFB0321206E05F045F90321BE
:102A0C00E06D05F041F92368104A93420DD1104B4B
:102A1C009A6942F400129A619A6922F400129A613E
:102A2C005A6A22F400125A6210BD0A4A9342FBD130
:102A3C00074B9A6942F480029A619A6922F48002E7
:102A4C009A615A6A22F48002EDE700BF00540040FC
:102A5C000038024000580040202A30B514D800231A
:102A6C009CB2A24207D890F894301344DBB280F8A1
:102A7C009430002030BD90F89440CD5C1C4404444C
:102A8C0084F874500133EBE70120F3E770B590F84C
:102A9C0091300446012B0D46A0F1040609D1436E7A
:102AAC003BB1836E30469847022384F89130002363
:102ABC0063668DB9E36E84F891501BB1304684F88F
:102ACC0090509847204694F8902004F170012023F0
:102ADC00BDE8704002F082BB00230122636684F8DB
:102AEC009120616E2046743131440423BDE870405E
:102AFC0002F0AFBB10B590F891300446012B04D115
:102B0C00436E13B1836E04389847022384F89130D6
:102B1C00002320466366BDE8104002F0D5BB436E2F
:102B2C001F2BDEBF436E0133436690F89130012BAF
:102B3C00DAB205D1416E04237031014402F089BB35
:102B4C007047002380F89030704790F892300BB9A2
:102B5C0002F0BABB70470000014B186802F034BD9C
:102B6C0028070020014B186803F070B928070020D3
:102B7C00014B586802F028BD28070020014B58680B
:102B8C0003F064B928070020002320311A46C9B28B
:102B9C00FFF7B2BD0022F8B50546144B914208BFB1
:102BAC001946FFF7EFF995F93530002B08DA0023B9
:102BBC0028461A460121FFF79FFD962006F016FACB
:102BCC000B4C217811B90B4BEB60F8BD6678A71C48
:102BDC0006F07F0423463A462846FFF78DFD330660
:102BEC003C44EED5962006F001FAEAE700366E0179
:102BFC00749F0008F000400113B501F00301022995
:102C0C0019D003291CD001290BBF282448244FF4C8
:102C1C00A072F0220CBFF0234FF4A0738176828156
:102C2C00C381362101230DF107028DF80740FFF710
:102C3C0029FD02B010BD8824F0224FF4A073EDE7FB
:102C4C00E8244FF4A072F023E8E700002DE9F047E8
:102C5C00DFF888A0BDF820505E1EBAF80030013DA8
:102C6C000E4415448B42044688461746DFF8709094
:102C7C00B6B2ADB203D1B9F80030B3420FD02A21AD
:102C8C002046FFF745FC41462046FFF767FC3146DE
:102C9C002046FFF763FCAAF80080A9F80060DFF873
:102CAC004480114EB8F80030BB4202D13388AB429D
:102CBC000ED02B212046FFF72BFC39462046FFF780
:102CCC004DFC29462046FFF749FCA8F800703580DA
:102CDC002046BDE8F0472C21FFF71ABC0600002067
:102CEC0004000020020000200000002013B5044660
:102CFC00CDE900230B464FF4A072F021FFF730F919
:102D0C002046024B236002B010BD00BF1C9F000880
:102D1C0010B50446243001F04FFC50B104F50D7091
:102D2C0001F04AFC28B12068BDE810400368DB695B
:102D3C001847002010BD024638B552F8105F044603
:102D4C002946806800F0A5FF40B1A3783DB943F057
:102D5C004003A370A37863F07F03A37038BD22698E
:102D6C000135AA42F6D023F04003F2E7F8B5057816
:102D7C00044615F0400502D000263046F8BD4269E5
:102D8C00154B9A42F8D2FFF7D6FF06460028F3D02F
:102D9C00A268236991795769023B8B401F44A06854
:102DAC00E9B203798B4208D84FF4007382799340CF
:102DBC0062699BB21A446261DFE705223944243010
:102DCC0001F01DFC01350028D6D04FF40072002113
:102DDC0006F02EFAE3E700BF00FE1F0010B5044614
:102DEC0080680A462430A16901F009FC20B1A3884F
:102DFC0003F00F0300EB431010BD38B50D460178FE
:102E0C00044609B1002038BD242206F011FAA56051
:102E1C00EB79102B03D0202B06D00C2BF2D14023B6
:102E2C0001202370A070EEE78023F9E72DE9F74F1E
:102E3C0083780446DF078846164640F19F80037866
:102E4C001D072DD5C36942699B1A9E4228BF1E4699
:102E5C0037464FF00009002F58D023786269590685
:102E6C00A068C2F3080A4FEA522522D5036A1D4412
:102E7C00A368BAF1000F4DD1B7F5007F4AD3196B97
:102E8C008D4247D0B7F5806F5ED2986A4246036890
:102E9C0029461B699847002870D04FF4007B4CE002
:102EAC005806D5D5A3685A896369C3EB42139BB204
:102EBC00CBE790F8059009EA0509BAF1000F08D1A3
:102ECC00B9F1000F05D16AB91A064CBF036A236A1F
:102EDC002361A36825699A79023D5B6995401D447D
:102EEC004D44C5E71B07216905D5A3785D0602D5BE
:102EFC0001312161EDE704F1100200F006FE00281B
:102F0C003CDBE6D1237813F0D00F37D0F01B03B0A5
:102F1C00BDE8F08FCAF5007BBB454FF00002294697
:102F2C0003F1240028BFBB4601F069FB30B300EB72
:102F3C000A015A46404606F0B9F96369D8445B4425
:102F4C006361A7EB0B0786E720784FEA572A420606
:102F5C0005D41879A0EB0900824528BF82468D4222
:102F6C004FEA4A2B11D9986A2946036842465B6995
:102F7C009C4653466546A8470028DED163784FF03F
:102F8C00FF3043F002036370C1E705EB0A00814296
:102F9C00E9D203F12400019301F00EFB019B002800
:102FAC00E1D1EBE773B5D0E9045601220DF107012D
:102FBC000446FFF73BFF012814BF4FF0FF309DF88C
:102FCC000700C4E9045602B070BD436937B513F469
:102FDC00F07F0446C3F3431500D099B90122204673
:102FEC000DF10701FFF722FF40B2012802D00020AB
:102FFC0003B030BD63691F33A0686361343000EBEC
:10300C004510F5E72033F7E72DE9F0410D4601783F
:10301C000446076989B14069A84206D045B92561C3
:10302C00A378656123F02003A3700120BDE8F08133
:10303C000B0705D5E369AB420AD200202761F5E7FF
:10304C004E0605D5A3685B89B5EB431FF5D8E7E7BA
:10305C00D4F808C0A2789CF806306E1E0933DBB297
:10306C00520626FA03F603D5236A33442361D7E7C5
:10307C00421E22FA03F39E4200D398B90B064CBFB2
:10308C00DCF82030236A236104F11008002EC7D02D
:10309C0042462169A06800F038FD002806F1FF3691
:1030AC00F4DCCAE7F61AEFE7F8B50F460446164605
:1030BC00002124221D4606F0BBF8B8683B6AA680A6
:1030CC00E36006F00F0600F13403A06003EB461337
:1030DC00DA7A17073ED402F037022270D97A11F04F
:1030EC00180F04BF42F0080222709DF81820E270FD
:1030FC0005F00302012A25D0022A25D052BB6E0509
:10310C0028D401229107A27007D52178CF0621D4AB
:10311C00CE071FD441F02001217005F008010A43AD
:10312C00A270026B598BA2619A8A41EA02416A052C
:10313C0014D559B9A37863F07F03A3706B0411D431
:10314C000120F8BD0222DDE70322DBE700F0DAFD07
:10315C000028EFD100202070A070F2E72162DB691B
:10316C00E361EBE72046E169FFF74EFF0028E7D16A
:10317C00F0E7000037B50378044613B9012003B01B
:10318C0030BD90F90230002B2EDA0121FFF726FE1C
:10319C00054628B96378002043F001036370EEE71D
:1031AC000378E52BF6D0237803F03703C37223782A
:1031BC001B0744BFE369C361236A43831B0C8382EF
:1031CC000C4B1B6863B10DF103020DF1060101A854
:1031DC009847BDF804302B836B82BDF80630EB8228
:1031EC00A37803F07F03A370A068FFF791FD00287C
:1031FC00D0D0C3E73407002010B50446FFF7BAFF60
:10320C0000232370A37010BDF0B51F46002395B0AA
:10321C000293ADF83830037806460C46019213B190
:10322C00002015B0F0BD0B7813F0D00FF8D0137848
:10323C002F2B12D1019A13782F2B05D0A16833B9FB
:10324C003046FFF7DAFDECE701320192F2E702A813
:10325C00FFF7D3FD0028E3D002AC3046019901AB57
:10326C000BAA00F0E1FB0028DAD0019B1B789BB184
:10327C000023214630460BAA00F09AFA0028CFD042
:10328C00354602AC0FCD0FC40FCD0FC42B683046A2
:10329C002360FFF7B1FFDFE73B46214630460BAA20
:1032AC0000F086FABDE719B101F24441FFF7ACBF5B
:1032BC00084670472DE9F047837804469D078946F8
:1032CC0016461CD5190715D463699B1917D2B0463D
:1032DC0004F1100A6369B8F1000F16D1E2699A4241
:1032EC0080F0B180E361A37863F07F03A370304674
:1032FC00BDE8F087C169FFF787FE0028E4D1637849
:10330C00002043F001036370F2E7A068216947795C
:10331C00C3F3080517EA53270AD14DB900293BD04E
:10332C00A27852062CD5E2699A4229D90131216141
:10333C00D4F808C021699CF8063002399940DCF8B1
:10334C00143019443944002D32D1B8F5007F2FD3F5
:10335C00B8F5806FDCF83020DCF8280058D29142A8
:10336C0002BF4FF0FF338CF82450CCF83030036898
:10337C004A461B6A98470028C1D04FF400773CE0BE
:10338C00524600F0C2FB0028B9DBD1D12046FFF732
:10339C00D2FC0028CCD1B2E7236A3BB92046FFF718
:1033AC00CAFC0028ABD023692362C1E72361BFE7C5
:1033BC00C5F50077474528BF47462DBB6269E369D1
:1033CC009A4223D2A37813F0200F14BF05220122B6
:1033DC000CF1240001F013F9002890D028443A464F
:1033EC0049463D4405F062FFB5F5007FA06804D165
:1033FC00243001F0E1F8002881D06369B9443B44E2
:10340C006361A8EB070865E70122E1E70522DFE726
:10341C009CF80430DB1B4FEA5827BB4228BF3B46C5
:10342C0091424FEA432709D803EB010E964582BF20
:10343C004FF0FF328CF82450CCF830200268556ADB
:10344C004A46A847D7E7034B1B68002B7FF44BAFCA
:10345C004DE700BF34070020411E00F10A03002095
:10346C00C20142EA500211F8010F0244994202F0E3
:10347C00FF00F5D1704710B549010446FFF7C4FDB4
:10348C0028B12046BDE810400021FFF79EBD10BDBD
:10349C002DE9F04F054616468DB003AC074689461C
:1034AC0098460FCD0FC40FCD0FC42B680125236098
:1034BC00336873600023B381454501D9012008E0CE
:1034CC00A9EB050189B203A8FFF7D5FF824618B90D
:1034DC0000200DB0BDE8F08F4FF0000B5FFA8BF2BF
:1034EC005146384600F0F4FAB28904463AB9D6E9A6
:1034FC000112914203D1B0FA80F04009E9E730465D
:10350C0001F0A3F80190204601F008F90446019857
:10351C0001F004F98442DBD10BF1010BBBF10D0F6F
:10352C00DCD10135EDB2C7E72DE9F04F0546144665
:10353C008DB003AE89461F460FCD0FC60FCD0FC6FB
:10354C002B6804F116003360FFF786FF00268046D7
:10355C0001254FF00F0A2368A6816360BD4203D991
:10356C0001200DB0BDE8F08FA9EB050189B203A8CD
:10357C00FFF781FF0028F4D0059ABD4292F8243061
:10358C004FF0000143F0010382F8243014BF2B46A6
:10359C0045F04003037080F80BA0017380F80D8098
:1035AC00418300F1010BA089A0B9D4E901239A420F
:1035BC0010D1AEB14FF6FF700136F6B2042911D816
:1035CC00ABF8000001310D290BF1020BEBD10135E9
:1035DC00EDB2C3E72046019101F037F80199EDE710
:1035EC000126EBE70A2994BFABF80300ABF8050002
:1035FC00E8E702464FF020312DE9F04352F8163B34
:10360C008668C0F816105160C2F807101A782E3A66
:10361C0018BF01221F4613F8011B2E29FAD0731E66
:10362C00BB429E4603D913F801192E29F8D100216B
:10363C004FF0070C0C4688464FF0080942E03B78E7
:10364C002E2B04D1BE4552D05F2300220DE0222B3D
:10365C00FAD07C2BF8D0A3F15B05022DF4D9A3F1A1
:10366C002A05052D04D82D2BEED1644510D820E069
:10367C00A3F13A05052DE7D9A3F121055D2D05D957
:10368C0003F0C003802BDFD100221AE0644507D978
:10369C00BCF10A0F31D0BE452FD30EF1FF37F3E743
:1036AC00A3F16105192D1BD8203B49EA0101DBB2BE
:1036BC00C9B2651CEDB20444A3752C46062D98BF07
:1036CC0005750137B742BAD3837D202B20D0B2B118
:1036DC0018EA010F18BF022141750120BDE8F083E3
:1036EC00A3F14105192D98BF49EA0808E1E74FF00D
:1036FC000A0C08244FF01009E3E70022E4E7012349
:10370C007E224375037D03449A753122DA75E4E712
:10371C000020E3E72DE9F84307460D466224002616
:10372C0091F8148001F1160905F05EFCB8F1030F55
:10373C0028BF4FF00308042108F11B033044DBB20F
:10374C0086B22B4406F00F02092A01F1FF3194BF17
:10375C003032373211F0FF0103F8012D4FEA161603
:10376C00F0D17E2205EB080338469A75FFF74CFC26
:10377C0001213846FFF729FC014628B97878B0FAC0
:10378C0080F04009BDE8F883037873B1C37A1B0756
:10379C00EED40B22484605F03BFD0028E8D1601E14
:1037AC0010F0FF04C0D12046ECE70120EAE700004E
:1037BC002DE9F04F8DB004938B680D4606930B7872
:1037CC00174613F0D00F089003D100200DB0BDE8C0
:1037DC00F08F089B1B78002BF7D113690D220C334B
:1037EC00B3FBF2F34FF0000BDBB207937B7DD946B2
:1037FC00980717BF079B012303F1010A5FFA8AF3AD
:10380C005C46DA46D846002128460393FFF7FCFBBA
:10381C0007F11603CDF814B009936E690021284600
:10382C00C6F34F16FFF7D1FB00285FD16B78002B46
:10383C00CBD1049B9A05C8D503F00303013B012BA4
:10384C00C3D8059B002C18BF1E46039B9C42C0F09E
:10385C00BF80B8F1000F40F0D780039B3A4603F1CC
:10386C00FF385FFA88F84644B6B2434631462846DC
:10387C00FFF75AFE0028A8D031462846FFF7FBFD7B
:10388C0004460028A1D02022002105F0D1FCD7F855
:10389C0016302360D7F81A306360FB8B238197F8BE
:1038AC002030A3727B7D03F0180323735D4B1B68E0
:1038BC00002B00F0B1800DF12B020DF12E010BA8A5
:1038CC009847BDF82C302382BDF82E30E3819DF84B
:1038DC002B306373069B069A93F8243043F0010354
:1038EC0082F824306BE04FF0010896E70278E52A65
:1038FC0000D072B9059B002C08BF33460593039B7F
:10390C009C423CBF0134E4B2002A92D04FF0000A32
:10391C0083E7039B9C4238BF00242E2AF6D090F8F4
:10392C000BC0BCF10F0F29D1BAF1000F1CD1079BB2
:10393C0002F01F094B457FF470AF12F0400A3FF4C0
:10394C006CAF9A4690F80DB0B9F1010F7FF465AFEA
:10395C00711C53463A46284689B2FFF799FD002858
:10396C0008BF4FF0000A58E709F1FF395FFA89F9EF
:10397C004A45CBD1427B5A45E6D0C7E71CF0080F2D
:10398C00C4D1BAF1000F0AD0B9F1010F7FF41DAF09
:10399C00FFF762FD58457FF418AFD0460BE00B22C1
:1039AC00099905F035FC00287FF437AF97F815809E
:1039BC0018F0010897D1049B19053FF506AF324664
:1039CC002946049B0898CDF80080FFF76DFBFDE6B7
:1039DC0000212846FFF7F9FA98B96B78002B7FF491
:1039EC00F4AE039B9C42BFF434AF2846FFF7BEF9FC
:1039FC0000283FF4EAAE069B1B7904EB0313DCB200
:103A0C00EFE70134E4B220E739462846FFF782FE9F
:103A1C0000287FF422AFD8E645F6212323822383A6
:103A2C00638257E734070020F7B514461E46084654
:103A3C0011F8013B202BFAD00025244F2060256182
:103A4C00037843BB2369013BFE2B3BD8024610F89D
:103A5C00013B202BFAD02F2BF8D02046326003B03C
:103A6C00BDE8F040FFF7C5BD2239C9B227FA01F114
:103A7C00CA0727D42E2B0CE05C2923D005D83E395D
:103A8C0001291FD92561A060DAE77C29FAD119E058
:103A9C00202BD5D0F6E72F2BD4D001AA011D00F096
:103AAC00F9FD78B1019BB3F5803F2CBF02220122B6
:103ABC007F2B1544E6D8D9B23C29DDD82129D3D89F
:103ACC001F29E5D8002003B0F0BD00BF012100057F
:103ADC00042A04D801EB4201B1F8010070470A2A0C
:103AEC0003D801EB4201888870470C2A9ABF01EB7E
:103AFC004201C88800207047037A00F50D70022B34
:103B0C0008BF42F0020200F07ABD01292DE9F04114
:103B1C0006460C46174603D84FF0FF30BDE8F0813F
:103B2C00C3698B42F8D3C379202B12D1816900224F
:103B3C0001EBD411FFF7E0FF0028EDD0A40004F452
:103B4C00FE740359F269934296BF012000203B603A
:103B5C00E4E7102B0DD18369C1F30721002219442E
:103B6C00FFF7CAFF0028D7D0640004F4FF74035B8E
:103B7C00E8E70C2BD0D1C1F34E08884483691FFAB7
:103B8C0088F5C8F34628984400224146FFF7B4FF55
:103B9C000028C1D0C5F30803C55C0133B3F5007F21
:103BAC0008D10022304608F10101FFF7A5FF0028DB
:103BBC00B2D00023C35CE20745EA03231BB24CBF1F
:103BCC00C3F30B13C3F30B03BCE701292DE9F0413D
:103BDC0080460C46154602D80020BDE8F081C3692A
:103BEC008B42F9D3C379202B0DD18169012201EBD2
:103BFC00D411FFF781FF0028EED0A40004F4FE746A
:103C0C0005510120E9E7102B0DD18369C1F3072180
:103C1C0001221944FFF770FF0028DDD0640004F482
:103C2C00FF740553EDE70C2BD6D1C1F34E070F44AF
:103C3C008369BEB2C7F346271F4401223946FFF7FA
:103C4C005BFF0028C8D0C6F3080314F00104EAB2E5
:103C5C0000EB030605D0C15C1201D2B201F00F01DA
:103C6C000A430133B3F5007F327007D1012240467D
:103C7C00B918FFF741FF0028AED00023C5F3071594
:103C8C00C21824B9C35C23F00F0343EA1515157051
:103C9C00B7E72DE9F341C46805468C420E469046C1
:103CAC0007D20C460027EB690134A34203D23FBB79
:103CBC00EC680127F7E7A64222D02146284601AA44
:103CCC00FFF723FF00281BDBEDD0019B002BEAD173
:103CDC0007B1EC606FF0704221462846FFF775FF84
:103CEC00074668B12EB9C8F80040384602B0BDE8A6
:103CFC00F081224631462846FFF767FF0028F2D1B3
:103D0C000027F2E773B505460C462146284601AA62
:103D1C00FFF7FBFE061E10DB002221462846FFF7AC
:103D2C0054FF50B1EB68A34284BF04F1FF34EC6044
:103D3C00019C002EE9D102B070BD0020FBE7F8B564
:103D4C001D46002304460160C3710120E0604FF062
:103D5C00FF301646A16284F824302063C4F8381270
:103D6C0084F83432C4F84002D2B1042A01D90020BC
:103D7C00F8BD1A46194604F1240000F040FC002856
:103D8C00F5D006F18052013A00F5DF70130100EB1B
:103D9C00021211790029EAD0C35C5B06E7D1956861
:103DAC000022294604F1240000F029FC0028DED072
:103DBC00077C7B1E012BDAD8B0F80B30B3F5007FF3
:103DCC00D5D12772417B09264B1E6371002201233A
:103DDC00217199422FD1A271C38A23610BB9436A15
:103DEC002361C38926692B44B0F81110A36106FB2B
:103DFC0007336181490101F2FF11236203EB512367
:103E0C00B0F81310636101B9016AED1A0D44D54085
:103E1C006B1CE36140F6F4739D4215D94FF6F473B5
:103E2C009D4213D9C36A236220230120E371E66209
:103E3C00C4F83C629CE7013E01D1A27197E70132C4
:103E4C005B00D2B2DBB2C4E70C23EEE71023ECE745
:103E5C000368DB69184703681B69184710B40468CA
:103E6C006469A44610BC604703681B6A184710B409
:103E7C000468646AA44610BC6047036810B45C69AB
:103E8C000123A44610BC6047704710B5044620219E
:103E9C0003F08FFC204610BD70B5C67C04467EB97D
:103EAC00051D284600F045FB01233146607CE37478
:103EBC0000F03DFB2846BDE87040FF2100F069BBD7
:103ECC0070BD38B5C37C04466BB10121407C251D07
:103EDC0000F02DFBFF21284600F05BFB284600F08C
:103EEC003DFB0023E37438BD037C10B5044633B1AD
:103EFC00FFF7E7FF201D00F034FB0023237410BDF7
:103F0C0070B5037D0446012B10D0C67C0EB9FFF7AB
:103F1C00C3FF201D00F028FBB0F1FF0518BF0125E1
:103F2C0016B92046FFF7CDFF284670BD0025FBE7EC
:103F3C002DE9F04104460F46904605F055F800F582
:103F4C009675ADB2261D304600F00EFBFF2860754D
:103F5C0011D0FE281BD142463946304600F009FBF1
:103F6C006075B0B9304600F0FFFA304600F0FCFA4C
:103F7C000120BDE8F08105F037F8281A0304E2D5DA
:103F8C001E232046A374FFF79CFF0020F1E71923A2
:103F9C00F7E72623F5E74FF40072FFF7C9BF38B5F2
:103FAC0005460C4605F020F80444A4B20435284616
:103FBC0000F0DAFAFF2801D1012038BD05F014F821
:103FCC00201A0304F3D50020F7E72DE9F341036829
:103FDC000192DB6904460D469847002836D0E37CF5
:103FEC0013B92046FFF758FF3DBB261D304645F060
:103FFC00400100F0CEFA03270DF1040818F8071061
:10400C00304600F0C6FA013FF8D2002D14BF8721CC
:10401C009521304600F0BDFA304600F0A5FA0A258D
:10402C00304600F0A1FA0306607503D5013DADB230
:10403C00002DF5D102B0BDE8F0810C2DD5D04FF498
:10404C0096712046FFF7ABFF0028CED1FF20F1E799
:10405C0070B504460D46164637210022FFF7B5FF12
:10406C00324629462046BDE87040FFF7AEBF00003F
:10407C002DE9F041044600264FF0010888B001AD4F
:10408C0085E80E009DF8040026746682A67560749F
:10409C00174600F049FA0121607C00F048FA95E8D7
:1040AC000700504B251DA36005AB83E80700667322
:1040BC000ECB284684F80C8000F040FA204626757A
:1040CC0084F81080FFF7E8FE4146607C00F02FFA80
:1040DC000A26FF212846013E00F05BFA16F0FF0687
:1040EC00F7D13146607C00F022FA0A2600222046E5
:1040FC001146FFF76AFF012880460FD0013E16F0EB
:10410C00FF0663D04FF0FF08FF21284608F1FF3867
:10411C0000F03FFA18F0FF08F6D1E7E708214FF45A
:10412C00D5722046FFF751FF410744D402230426E1
:10413C00A375284600F018FA013E16F0FF066075CC
:10414C00F7D1AA2849D1A67DB21E5642564104F099
:10415C004BFF00F5FA68B6071FFA88F8324629219A
:10416C002046FFF775FF024640BBA37D022B17D1FB
:10417C003A212046FFF729FF88BB284600F0F4F9C6
:10418C0000F0C000C02808BF0323284608BFA37551
:10419C0000F0EAF9284600F0E7F9284600F0E4F9C7
:1041AC002046FFF78EFE01200023A7602073637367
:1041BC0008B0BDE8F08184F81680C4E704F014FF61
:1041CC00A8EB00000304C9D5172300E00123204607
:1041DC00A374FFF776FE0020EAE70623F7E7122325
:1041EC00F5E700BF801A060038B5154600220446D4
:1041FC00FFF7EBFE30B11C23A3742046FFF761FEE2
:10420C0000250AE0294610222046FFF791FE0546BC
:10421C000028F2D02046FFF754FE284638BD1FB5C3
:10422C0009216A46FFF7E0FF08B39DF800309B09AF
:10423C0020D19DF806309DF808009DF807209B02C0
:10424C00800903F4406340EA820018439DF809306A
:10425C009DF80A205B0003F0060343EAD2139DF895
:10426C000520013002F00F021344073B984005B0C3
:10427C005DF804FB012B0CD19DF80730BDF808004C
:10428C001B0440BA03F47C1380B218430130800243
:10429C00EDE70020EBE710B5837D0A46032B18BF32
:1042AC004A0212210446FFF790FE30B10C2320463F
:1042BC00A374FFF706FE002010BD01202075FBE75C
:1042CC0038B500240C21224604750546FFF77DFE07
:1042DC0030B109232846AB74FFF7F3FD204638BDF7
:1042EC002846FFF7EEFD0120F9E7F8B51E46037DE1
:1042FC000446012B0D46174602D183698B4207D029
:10430C0029462046FFF7C7FF08B90020F8BDA56174
:10431C000025B54207EB45210AD1A369207F2B4428
:10432C00A3610028F2D12046BDE8F840FFF7C8BFD2
:10433C002046FFF730FE0028E7D00135E9E770B5DD
:10434C001646051D0446284600F023F94FF400726A
:10435C003146284600F021F9FF21284600F019F9D2
:10436C00FF21284600F015F9284600F0FDF860758D
:10437C0000F01F00052806D021232046A374FFF768
:10438C00A0FD002070BD0120FCE738B50D464FF4B0
:10439C0016710446FFF703FE30B92523A37420469B
:1043AC00FFF78FFD002006E02A46FC212046FFF790
:1043BC00C6FF0028F3D038BD70B5837D1546032B9E
:1043CC0018BF49020A4618210446FFF7FEFD0646AF
:1043DC0030B10D23A3742046FFF773FD00251FE0B9
:1043EC002A46FE212046FFF7AAFF0028F3D04FF4FF
:1043FC0016712046FFF7D3FD054608B92423E9E7DB
:10440C0032460D212046FFF7E0FD08B10A23E1E713
:10441C00201D00F0A9F80028F8D12046FFF751FD27
:10442C00284670BD10B4047F2CB103685C6A01236C
:10443C00A44610BC604710BCFFF7BEBF10B5837D0F
:10444C000A46032B18BF4A0219210446FFF7BDFD8B
:10445C0030B10E232046A374FFF733FD002010BDAE
:10446C00022301202375FAE738B54FF41671044680
:10447C00FFF795FD054630B91F232046A374FFF7BF
:10448C0020FD284638BDFD21201D00F082F8204675
:10449C00FFF717FD00232375F3E7037D022B01D1F2
:1044AC00FFF7E2BF012B01D1FFF70ABF01207047D4
:1044BC00F8B51E46037D0446022B0D46174602D165
:1044CC0083698B4207D029462046FFF7B7FF08B90E
:1044DC000020F8BDA5610025B54207EB45210AD1A6
:1044EC00A369207F2B44A3610028F2D12046BDE8AC
:1044FC00F840FFF7B9BF2046FFF747FF0028E7D089
:10450C000135E9E730B585B001AC84E80E0094E8DC
:10451C000E000546FFF7ACFD20B19DF8053003F009
:10452C0001032B7705B030BD012104F081BC04F0F0
:10453C00E9BCD0E901120068FCF760BC84B00DF155
:10454C00100C0CE90E00044A002B08BF1346036044
:10455C00184604B0FCF742BCD00500200068FCF7FC
:10456C006EBC0068FCF76CBC0022FF210068FCF7F5
:10457C0069BC70B50C4605461646FF21204604F072
:10458C0057FE2868002332462146FCF76DFC0020BC
:10459C0070BD00220068FCF755BC00B5B2F5007F79
:1045AC001346ADF5017D03D86A460068FCF763FC41
:1045BC000DF5017D5DF804FB70B503780446DA0750
:1045CC0011D5406804F1100503682A461B6AE1689E
:1045DC00984708B9002070BD23789B0705D4237831
:1045EC0023F0010323700120F5E7201D43C8036865
:1045FC002A461B6A314498470028F0D1EAE7436801
:10460C0070B504460E4615460BB9002070BDC36844
:10461C008B4208D0FFF7D0FF0028F6D06B070AD5E5
:10462C000023E66023702046237805F003052B4316
:10463C0000F8103BEAE760683146036804F11002A9
:10464C001B6998470028EBD1DFE7838913B5044633
:10465C0023B100228281184602B010BDD4E90101B9
:10466C008842F8D201AA00F015F810B94FF6FF7382
:10467C00F1E7019A6060B2F5803F93B2EBD3C3F3DC
:10468C000903920AA3F51053A2F52152A38193B208
:10469C00E1E70000884230B505463AD2037890F93C
:1046AC000000002802DB1360681C30BD03F0E00042
:1046BC00C0281ED1022403F01F032819884228D8D1
:1046CC00013515F8011B01F0C004802C21D101F03B
:1046DC003F01854241EA8313F3D10F49A3F18004D2
:1046EC008C4216D8A3F55841B1F5006F11D3136065
:1046FC00DBE703F0F000E02803D1032403F00F0301
:10470C00DBE703F0F800F02803D1042403F00703DF
:10471C00D3E70020C9E700BF7FFF10007E2830B52B
:10472C0027D8A0F16103192B8CBF00230123A0EB28
:10473C00431398B230BD03EB520231F8225085423C
:10474C008CBF14461346E21A012AF4D89AB231F8F7
:10475C00223098422DD301EB8201CA78C31A9342BE
:10476C0027DA91F90220012A07D103F00103C31AB9
:10477C00DFE7352400231149E5E71AB192B2024470
:10478C0090B2D7E74EF2A032F9E703EB520231F8C0
:10479C00225085428CBF14461346E21A012AF4D8E3
:1047AC009BB231F82320824204BF01EB830148887D
:1047BC00C0E74B2400230249EFE700BF54A10008D7
:1047CC0028A00008037C024613F0080005D0D36A29
:1047DC00506A181A48BF6FF0004070471030FEF74F
:1047EC00E1BB1030FEF7C6BC1030FEF763BD07B559
:1047FC0001228DF8071010300DF10701FEF75AFD5C
:10480C0003B05DF804FB07B501220DF10701FEF7BB
:10481C000DFB012814BF4FF0FF309DF8070003B0CB
:10482C005DF804FB08B51030FFF7EDFF08BD002262
:10483C00C0E9012202730260704738B5037B04465D
:10484C00012B1ED1056845B12846FDF71DF92C2119
:10485C00284602F0AEFF00232360656845B1284668
:10486C00FDF712F92C21284602F0A3FF0023636008
:10487C00A06818B102F09BFF0023A36000232373F0
:10488C0038BD022B06D10568002DE6D02846FDF771
:10489C0036FADCE7032BE0D10568002DDDD0284685
:1048AC00FDF756FAD3E710B50446FFF7C6FF2046CE
:1048BC0010BD0000002210B54FF47A748282C0E95A
:1048CC0002248275014AC0E9001210BD30A2000812
:1048DC0010B5037D044613B11430FEF78DFC204651
:1048EC0010BD07B502220DF106011430FEF79EFA39
:1048FC00BDF8060003B05DF804FB07B504221430C4
:10490C000DEB0201FEF792FA019803B05DF804FB7F
:10491C002DE9F04FADF52B7D06939DF8DC324FF071
:10492C0000090D934FF47A730446CDE91593704B3F
:10493C00154614930A464B46016818A8BDF9D07267
:10494C00BDF9D482CDF86090FEF7ADFC159B04F157
:10495C00140CA360169B18AEE360179B23610FCE5B
:10496C00ACE80F000FCEACE80F003368CCF8003089
:10497C00237D002B00F052822046FFF7B2FF44F655
:10498C00425398420AD04FF0020904F11400FEF78A
:10499C0033FC48460DF52B7DBDE8F08F2046FFF724
:1049AC00ACFF2046FFF7A9FF2046FFF7A6FF0C90AF
:1049BC002046FFF7A2FF82462046FFF79EFF0646E1
:1049CC002046FFF79AFFB0F1000BA8BF0123204649
:1049DC00B6BFCDF838900E93CBF1000BFFF781FFEB
:1049EC005FFA80F92046FFF77CFFBAF10C0FC3B2D7
:1049FC00029374D92046FFF780FF82462046FFF7CA
:104A0C007CFF2046FFF779FF2046FFF776FF204614
:104A1C00FFF773FF08902046FFF76FFF089B1BB949
:104A2C000123029A93400893002D5BD0002FAFBF57
:104A3C000023F31904937B42B9BF07930027049614
:104A4C000793B8F1000FAFBF00230BEB08030393E0
:104A5C00C8F10003B8BF4FF00008049AB4BF0A9322
:104A6C000A93B5F90C303A44A8BFCDF80CB09A4271
:104A7C00C8BFDB1B039AC8BF0493B5F90E30424480
:104A8C009A4202DDA3EB08030393B9F1010F7FF403
:104A9C007AAFBAF1000F7FF476AF029B182B00F0BF
:104AAC00C081012B7FF46FAFB69B002B00F0BD8152
:104ABC002C2002F07AFE8146029B1FFA8BF2B1B2D7
:104ACC00FCF7C2FFB69BC3F80090D9F824300993C9
:104ADC00069B3BBB099B2BBB4FF0030955E74FF0E3
:104AEC00000A9DE7CDE903B60A950795CDE700BF0F
:104AFC0030A200082C2002F058FE82464B464FF0A4
:104B0C0003091FFA8BF2B1B2FDF704F9B69BC3F897
:104B1C0000A0DAF824300693069B002B3FF435AF47
:104B2C0000230993049B002B40F3EF80039B002B85
:104B3C0040F3EB80002D00F0EB802B6828465B697E
:104B4C009847BDF80C202B680092D3F85490284657
:104B5C00BDF810301FFA88F2B9B2C847029B0F2B70
:104B6C0040F2DB8000230593029B4FF0000906FB0B
:104B7C0003F212F11F0348BF02F13E035B119B00CD
:104B8C000893079B0A9ADB101093079B089903EB79
:104B9C0043031193F31D48BF06F10E03DB100F9373
:104BAC000BF1FF339B1A0C9A4E4601FB03230B931C
:104BBC0013460A460A994FF4167701FB02330C93FD
:104BCC00079BCA46DB43C84603F00703CDF8289081
:104BDC0013930E9ADDE90B3B002A18BF9B46029BF0
:104BEC00182B40F0DA80119B9B44A36A5B450FD0D5
:104BFC000D9B33B12846FDF749FA2B682846DB6A32
:104C0C009847594604F11400FEF7FEF94FF4167755
:104C1C000023079304F114030DF1500B1293B7F515
:104C2C00167F23D3002D00F0C3800D9B33B1284693
:104C3C00FDF72CFA2B682846DB6A98474FF416725E
:104C4C0059461298FEF7F2F80D9B1BB12B682846BB
:104C5C005B6998470027002E00F0B3803246012391
:104C6C00284606990097FDF7C8FC3E46029A1BF8A9
:104C7C000730182A40F0A780791CBA1C89B21BF89F
:104C8C00011092B21BF802206948C90000EA022206
:104C9C0001F4FC6103370A43BFB242EAD303069A1C
:104CAC0022F816300136079B01330793079A049BB1
:104CBC009342B4D185B13EB10023324600932846CD
:104CCC0001230699FDF799FC2846FDF7DFF92B68BF
:104CDC002846DB6A984700260A9B089A01330A93F8
:104CEC000F9B99440B9B9B1A0B930C9B13440C939B
:104CFC000A9A039B93427FF46CAF059B2BB1002D5A
:104D0C0000F08880184604F097F94FF000093CE653
:104D1C00029B012B3DD1B69A1373089B580004F0EB
:104D2C0083F905900028F0D0029B0F2B3FF61CAFA7
:104D3C00231D0B93002304F1140A08989AB2904295
:104D4C0003F101037FF610AF5046CDE90F23FFF7B7
:104D5C005AFD80465046FFF756FD81465046FFF7F8
:104D6C0052FD07460B98FFF75DFD3149FFB24FEA44
:104D7C00C90901EA072709F4FC69059B0F9A47EA60
:104D8C000907C8F3C40848EA070823F81280109BE7
:104D9C00D3E70323B69A1373E4E6109B4FF0800A13
:104DAC009B44B69BDDF84C80002B18BF4E461CE78D
:104DBC004FF4167214A904F11400FEF737F82F46BD
:104DCC0054E7374652E743FA08F303F00103B8F10E
:104DDC00000F08D14FF007080137BFB245B1059A53
:104DEC0032F813305BE708F1FF385FFA88F8F5E723
:104DFC00099A9119925D53B142EA0A035FEA5A0A81
:104E0C0008BF4FF0800A0B7008BF01364BE722EA4F
:104E1C000A03F3E7B69B059A9A6076E74FF001090F
:104E2C00B7E5B69B002B7FF465AE4FF0020973E635
:104E3C0000F8FFFF2DE9F14FDDF8308005460E46F6
:104E4C0014461F46BDF92890BDF92CA09DF834B02E
:104E5C00B8F1000F02D04046FFF7EFFC3CB1B4F9BB
:104E6C000C304B4510DDB4F90E3053450CDD3B4690
:104E7C00224631462846CDE90C8BCDE90A9A01B081
:104E8C00BDE8F04FFFF744BD002001B0BDE8F08F46
:104E9C0010B5E8B09DF8AC41039400240294BDF920
:104EAC00A841CDE9003404ABFFF7C4FF68B010BDD6
:104EBC00104603290CD8DFE801F002050709054963
:104ECC0003F04CBE0449FBE70449F9E70449F7E752
:104EDC00704700BF249800082D9800083D980008E2
:104EEC005A9800087047000038B50F4B05461A68F1
:104EFC000AB9012038BD4FF47A73B3FBF2F30B4AB5
:104F0C001068B0FBF3F000F0A3F804460028F0D1D1
:104F1C000F2DEED8024629464FF0FF3000F048F82E
:104F2C00034B20461D60E5E7080000203C000020F4
:104F3C000C0000200B4B10B51A68032042F0040241
:104F4C001A601A6842F002021A6000F01FF8002082
:104F5C00FFF7CAFF044618B9FFF7C4FF204610BD7F
:104F6C000124FBE7003C0240034A0449136809682A
:104F7C000B441360704700BF380700200800002066
:104F8C00014B1868704700BF38070020074903021F
:104F9C00CA6803F4E06322F4E0621204120C1343B7
:104FAC0043F0BF6343F40033CB60704700ED00E087
:104FBC00154B30B5DC68C4F30224C4F10703251D7E
:104FCC00042B28BF0423062D4FF0FF3594BF00247B
:104FDC00033C05FA03F321EA0303A54022EA050288
:104FEC00A340002843EA0203ACBF00F16040074A2B
:104FFC004FEA0313DBB2ABBF00F5614000F00F00CA
:10500C0080F80033135430BD00ED00E014ED00E0E7
:10501C00002807DB01234109034A00F01F008340ED
:10502C0042F82130704700BF00E100E000280CDBA3
:10503C0001220649430900F01F008240203341F849
:10504C002320BFF34F8FBFF36F8F704700E100E059
:10505C000138B0F1807F0BD24FF0E023F021054AEC
:10506C00586182F823100020072298611A6170475A
:10507C000120704700ED00E0002808DB0122430905
:10508C00034900F01F008240603341F82320704731
:10509C0000E100E0704708B5FFF7FCFF08BD704762
:1050AC0010B5044650B1437903F0FF0213B90271F5
:1050BC00FFF7F5FF01230020637110BD0120FCE711
:1050CC0010B5044640B10223037102F02FFC0020FE
:1050DC0020616071207110BD0120FCE7012310B527
:1050EC0058B1046801F01001226803FA01F122EAB8
:1050FC00010222600371002010BD1846FCE790F8F5
:10510C0021200346022A06D00422826301200022B9
:10511C0083F8202070470268116821F00E0111609D
:10512C00116821F0010111600121D3E90F0202F095
:10513C001C0201FA02F24260002083F82110E6E71B
:10514C0010B590F82120022A03D00422826301209A
:10515C0010BD0268436B116821F00E0111601168DB
:10516C0021F0010111600121D0E90F4202F01C0273
:10517C0001FA02F26260002280F8211080F82020EF
:10518C0003B198470020E3E790F821007047000036
:10519C00044A08B55169014202D0506102F09AFCF0
:1051AC0008BD00BF00040140704710B5044698B11B
:1051BC002423026880F83D30136823F00103136048
:1051CC00FFF7F2FF0020206484F83C0084F83D00D7
:1051DC00206384F83E0010BD0120FCE737B504467F
:1051EC0090F83D0000F02800282830D100292CD060
:1051FC00002A2AD094F83C00012828D02568286879
:10520C00C0075EBF286840F001002860286820F4C1
:10521C0000602860292084F83D00202084F83E009E
:10522C00002020646285628DE36201906B6961628B
:10523C000193AB6984F83C000193019B6B68228558
:10524C0043F4E0636B6003B030BD0120FBE7022048
:10525C00F9E737B5044690F83D0000F028002828FF
:10526C0030D100292CD0002A2AD094F83C000128F7
:10527C0028D025682868C0075EBF286840F0010068
:10528C002860286820F4006028602A2084F83D00FB
:10529C00202084F83E00002020646285628DE36249
:1052AC0001906B6961620193AB6984F83C000193D6
:1052BC00019B6B68228543F4E0636B6003B030BDE7
:1052CC000120FBE70220F9E790F83D30202B14D1A8
:1052DC00282380F83D30036800201A68D2075EBF8F
:1052EC001A6842F001021A601A6842F480621A606D
:1052FC005A6842F440725A607047022070477047F7
:10530C007047704790F83D2008B5036DD2B283B951
:10531C00C36C0268012B836C05D1DBB21361036D86
:10532C000233036508BDC3F307231361036D013317
:10533C00F7E7036D012B03D1836C0268DBB2F4E752
:10534C00036D022B2FD1222A05D10268136843F476
:10535C0080731360EAE7438D9BB263B1212A0AD1B3
:10536C00436A026813F8011B11614362438D013BD0
:10537C009BB24385D6E7438D9BB2002BD2D1212A19
:10538C00D0D10268516821F4E0615160116841F498
:10539C00007111602022036380F83D2080F83E30BC
:1053AC00FFF7AFFFBEE703685A69120644BF00223D
:1053BC001A61B7E770477047002337B546F2A8115A
:1053CC0001932C4B406A1B6890F83D20B3FBF1F322
:1053DC0023214B4301930368D2B2019941BB016C69
:1053EC0041F020010164446B0CB10021A162816B7E
:1053FC0009B100258D621D6825F480651D600025AE
:10540C00458504B1656301B14D63196821F0010153
:10541C00196090F83D10602911D1202380F83D309F
:10542C00002380F83E300364FFF7C5FF03B030BDA6
:10543C0001990139019119688905CED4D3E702F09D
:10544C002802282A0ED1196841F001011960196847
:10545C0041F4806119600023036380F83D20FDF75F
:10546C0074FBE3E7202380F83D30002380F83E30C6
:10547C00F5E700BF3C00002010B590F83D2090F8F7
:10548C003E300446102BD9B2D2B2036801D0402969
:10549C0013D1222A11D1196821F4006119605968BD
:1054AC0011F4006106D1602A1EBF202284F83D2031
:1054BC0084F83E100022226307E002F0280128291C
:1054CC00EDD10022226384F83D105A6812F4006278
:1054DC004FD05A68606B22F400625A6090F8213009
:1054EC00012B374B2BD04363FFF72AFE50B12268B8
:1054FC00606B136823F001031360202384F83D30A4
:10550C00436B9847236C19071FBF2268536823F419
:10551C00E063536094F83D30226CDBB252070DD53A
:10552C00282B0BD1274B2022E36200232046236338
:10553C0084F83D2084F83E30FDF7DCFA10BDA06BFA
:10554C004363FFF7FDFD0028DCD023685A69510640
:10555C0005D51A69636A1A70636A0133636222683B
:10556C00A06B136823F001031360202384F83D30F3
:10557C00C6E794F83D10602915D1202184F83D1020
:10558C0022645A69520605D51A69636A1A70636AED
:10559C000133636222682046136823F00103136011
:1055AC00FFF709FFAEE75A69500605D51A69636A19
:1055BC001A70636A013363622046FDF7C6FAA1E7ED
:1055CC00C55300080000FFFFF0B5044603688FB018
:1055DC005A68C66A90F83E0094F83D101028C5B27F
:1055EC00C9B202D0402D40F0CF829F69586910F0AB
:1055FC00010F07D1B6F52A0F02D0B6F12A4F51D1BF
:10560C000FB0F0BD96054DD5E26AB2F52A0F0CD15C
:10561C000122E26294F83E20402A11D1226D52B947
:10562C00626C02F0FE021A61EAE7E26AB2F12A4FFA
:10563C00F0D10822EDE7626C42F00102D2B2F2E73F
:10564C002269B2F5804F1AD194F83D20212A626C60
:10565C0011D102F0FE021A61626B0AB1926A2AB988
:10566C00A26B002ACCD0926A002AC9D05A6842F4A4
:10567C0000625A60C4E742F00102D2B2EBE7226D3D
:10568C0032B9626CD21102F0060242F0F002CAE7A3
:10569C00226D012AB4D1626CD21102F0060242F0E2
:1056AC00F102C0E7060703D5960501D5626CE4E765
:1056BC00860740F1E880960540F1E58094F83E10AD
:1056CC00E26A256B94F83D00C9B2222840F0D380E1
:1056DC00206D40B9402906D101905A6901929B690D
:1056EC000193019B8CE7216D89B92069B0F5404F7E
:1056FC000DD102915A6902929A690292029A1A6821
:10570C0042F480721A60236D0133236578E7618D52
:10571C0089B251B903915A6903929A690392039A17
:10572C001A6842F400721A6019E0618D89B201297D
:10573C0049D112F5803F1BD11A6822F480621A609D
:10574C005A6812F400620CD01A6822F480621A6053
:10575C00002204925A6904929B690493049B0023CF
:10576C00D3E705925A6905929A690592059AD7E78B
:10577C00082A1CD0202A1AD0122D0DD1012A16D19C
:10578C001A6822F480621A60002206925A69069204
:10579C009B690693069BE2E7102AF1D8974941FAD8
:1057AC0002F2D707ECD41A6842F48062EBE71A686D
:1057BC0022F480621A60002207925A6907929A6951
:1057CC000792079AACE7618D89B2022930D1102A71
:1057DC0003D88B49D140CE0715D4196821F48061C8
:1057EC001960196841F40061196059680D0514D5E8
:1057FC00202A1AD8072A0AD8012A0ED15A6842F44C
:10580C0080525A6009E0196841F48061ECE7A2F11A
:10581C0008017C4ACA40D007F0D4002208925A6989
:10582C0008929B690893089B99E712F5803FE4E77F
:10583C00196841F4806119605968090510D5202A4E
:10584C0016D8072A06D8012A0AD15A6842F480527F
:10585C005A6005E0A2F108016A4ACA40D207F4D4A2
:10586C00002209925A6909929B690993099B76E770
:10587C0012F5803FE8E700220A925A690A929B6966
:10588C000A930A9BBCE67F0740F18D805E68360563
:10589C003FF5B6AE070600F004063ED550053CD5E4
:1058AC00002E3DD194F83D20258D94F83E10D2B2B7
:1058BC00E06AC9B2C5B9212A18D1082858D02028C5
:1058CC0056D010F5803F53D05A6822F4E0625A60EB
:1058DC0011232363002384F83E302023204684F8D0
:1058EC003D30FFF70CFD8BE6212A05D040297FF4D3
:1058FC0087AE222A7FF484AE628D92B21AB95A68AE
:10590C0022F48062B5E694F83E20402A16D1204657
:10591C000FB0BDE8F040FFF7F5BC002E3FF470AEC1
:10592C0097057FF56DAE212939D1E16A94F83D20B8
:10593C00212A7FF465AE628D92B24AB1626A12F886
:10594C00011B19616262638D013B9BB2638557E653
:10595C0008290DD020290BD011F5803F08D05968AB
:10596C0021F4E06159601123236384F83E20B4E7ED
:10597C005A68204622F4E0625A601A6842F40072B7
:10598C001A6000232022236384F83D2094F83E20E3
:10599C0084F83E30402AA4D1FFF7B3FC30E6402D0A
:1059AC007FF42EAEB3E759680E053FF529AE4506D8
:1059BC0000F004017DD550057BD500297CD194F8ED
:1059CC003D20222A7FF41CAE628D92B2032A1BD991
:1059DC001A69636A1A70636A01336362638D013BEF
:1059EC009BB26385638D9BB2032B7FF409AE226857
:1059FC00536823F48063536002E600BFEBFFFEFFA5
:105A0C001400010001010001E06A02283FF477AFA5
:105A1C00012A3FF674AF0B9146F2A811734A126833
:105A2C00B2FBF1F202EB82020B920B9A013A0B924F
:105A3C000B99D1B9226C204642F0200222645A689C
:105A4C0022F4E0625A601A69636A1A70636A01335D
:105A5C006362638D013B9BB26385202384F83D30E8
:105A6C0084F83E10FDF771F8CAE51A6812F400725A
:105A7C00DBD1196821F480611960596821F4E06167
:105A8C0059601969636A1970636A01336362638DC3
:105A9C00013B9BB26385202384F83D3094F83E3063
:105AAC0084F83E20402B69D122632046FFF782FC0C
:105ABC00A6E500293FF4A4AD92057FF5A1ADE26AFD
:105ACC00608D616A80B2042809D15A6822F4806220
